:03000000020030CB
:02000B000C32B5
:100030003154315411E931543154315474833126DF
:1000400031549003003146315474C23126315490FA
:10005000030B314675900F31653165D2947C007584
:100060008901758C00758A0075A882D28C30900247
:1000700080FBC28CC2948C60858C62858A647860B7
:100080007B70317F78627B72317F78647B74317FE3
:10009000315411E931543154315474813126315481
:1000A0009003183146315474C031263154900326E0
:1000B00031463154E5703135E571313531549003B5
:1000C0003031463154E57231353154E573313531D3
:1000D00054E57431353154E575313531543165317C
:1000E00065316531653165013075A038C280C281E6
:1000F000D2823154C282315475A00CC280C281D2E6
:10010000823154C282315475A001C280C281D28230
:100110003154C282315475A006C280C281D282316C
:1001200054C282315422F5A0C280C281D28231549D
:10013000C282315422F5A0D280C281D2823154C20F
:10014000823154315422C0E0E49360053135A380FC
:10015000F7D0E022C000C001780179FFD9FED8FABB
:04016000D001D000FA
:10016400227B1E316CDBFC22758910758B00758D2A
:1001740000D28E308FFDC28EC28F227A02E654F0F6
:10018400C4A903B40A0AB4090709E6540FB40A005F
:0E01940050062430F7DAF2222437F7DAEC2294
:10030000546F67676C6520535731006966204C4510
:100310004420676C6F7773005265616374696F6E18
:100320002054696D6500436F756E742069732000F9
:020330002000AB
:00000001FF
