:03000000020030CB
:06000B0011F2C30200CB5C
:100030007550007551007552007553003170317064
:1000400031053170317031707483314231709003F9
:10005000003162317074C23142317090030B3162F1
:1000600075900F31813181D29411F230900280FB72
:10007000C28CC2943170310531703170317074812D
:10008000314231709003183162317074C0314231A5
:100090007090032631623170E55324303151317054
:1000A000E552243031513170E551243031513170F5
:1000B000E55024303151317090033031623170316C
:1000C00081318131813181318101300550E550B478
:1000D0000A1F75500005510200DAE551B40A127585
:1000E000510005520200E7E552B40A0575520005B9
:1000F0005332C28CC28D758911758CF8758A307532
:10010000A882D28C2275A038C280C281D28231707E
:10011000C282317075A00CC280C281D2823170C29D
:1001200082317075A001C280C281D2823170C282D8
:10013000317075A006C280C281D2823170C2823114
:100140007022F5A0C280C281D2823170C282317029
:1001500022F5A0D280C281D2823170C28231703148
:0D0160007022C0E0E49360053151A380F7E8
:10016D00D0E022C000C001780179FFD9FED8FAD0C5
:10017D0001D000227B1E3188DBFC22758911758B25
:10018D0000758D00D28E308FFDC28EC28F227A0205
:10019D00E654F0C4A903B40A0AB4090709E6540FDA
:1001AD00B40A0050062430F7DAF2222437F7DAECDD
:0101BD00221F
:10030000546F67676C6520535731006966204C4510
:100310004420676C6F7773005265616374696F6E18
:100320002054696D6500436F756E742069732000F9
:04033000206D7300C9
:00000001FF
