:0A097F00610062006300640065007F
:10085D00E4F5A0C282C280C2817F38FE1209437FB7
:10086D00047E001208B57F067E001209437F047EC8
:10087D00001208B57F0C7E001209437F047E001222
:10088D0008B57F017E001209437F047E001208B572
:07089D007F807E0002094389
:1008A4001209137FE87E031208B512092B7FE87E34
:0108B4000340
:1008B500E4FDFCC3ED9FEC9E5015E4FBFA0BBB0079
:0F08C500010ABA01F8BB7EF50DBD00010C80E4FD
:0108D4002201
:10094300C280C281D2828FA07F0A7E001208B5C204
:020953008222FE
:10095500D280C281D2828FA07F0A7E001208B5C2E2
:020965008222EC
:1008D5008B088A09890AAB08AA09A90A1208FA60CD
:1008E50013050AE50A7002050914F91208FAFF1240
:0508F500095580E2221C
:10091300900000B2877F017E001208B5A3E582B480
:07092300DCF1E583B405ECF3
:01092A0022AA
:10092B00900000B2877F017E001208B5A3E582B468
:07093B00EEF1E583B402ECCC
:010942002292
:060992001208AE02091379
:090989001208A41208AE02092BA9
:0C0967001208A41209131208B102092B97
:060998001208A402092B65
:03099E0002092B20
:1008000012085D7590FF7FD07E071208B530900EFC
:100810007BFF7A09797F1208D5120992803D3091C9
:100820000E7BFF7A0979811208D5120989802C3054
:10083000920E7BFF7A0979831208D5120967801B13
:100840007BFF30930C7A0979851208D512099880BC
:0D0850000A7A0979871208D512099E80FEE8
:030000000209737F
:0C097300787FE4F6D8FD75810A020800C8
:1008FA00BB010689828A83E0225002E722BBFE02FC
:09090A00E32289828A83E493222E
:00000001FF
