:03000000020030CB
:1000300075A00075900031DC31DC317131DC31DCD0
:1000400031DC748231AE31DC90030031CE31DC74AE
:10005000C331AE31DC90030D31CE31F8317131DC7A
:1000600031DC31DC75908F748131AE31DC90031856
:1000700031CE31DC74C331AE31DC90030D31CE3181
:10008000EDE590540FC4F53075904F31EDE5905487
:100090000F2530F53075902F31EDE590540FC4F5F4
:1000A0003175901F31EDE590540F2531F5317830E1
:1000B0007B60512278317B62512231DC317131DC3D
:1000C00031DC31DC75900F748031AE31DC90032768
:1000D00031CE31DC74C031AE31DC90033831CE31F9
:1000E000DCE56031BD31DCE56131BD31DC90033EE2
:1000F00031CE31DCE56231BD31DCE56331BD31ED5E
:10010000E5308531F0A4F55085F05178507B66518B
:100110002278517B64512231DC317131DC31DC31A8
:10012000DC75900F748131AE31DC90034631CE31F5
:10013000DCE56431BDE56531BDE56631BD31DCE549
:100140006731BD31DC74C031AE31DC90033831CE63
:1001500031DCE56031BD31DCE56131BD31DC90037E
:0B0160003E31CE31DCE56231BD31DC08
:10016B00E56331BD80FE75A038C280C281D2823179
:10017B00DCC28231DC75A00CC280C281D28231DC40
:10018B00C28231DC75A001C280C281D28231DCC255
:10019B008231DC75A006C280C281D28231DCC28280
:1001AB0031DC22F5A0C280C281D28231DCC2823125
:1001BB00DC22F5A0D280C281D28231DCC28231DC5A
:1001CB0031DC22C0E0E493600531BDA380F7D0E0C1
:1001DB0022C000C001780179FFD9FED8FAD001D036
:1001EB000022C000780231F8D8FCD00022C0007881
:1001FB00055103D8FCD00022C00078C8510ED8FCA2
:10020B00D00022C00078045119D8FCD00022C000C5
:10021B0078F4D8FED000227A02E654F0C4A903B4D5
:10022B000A0AB4090709E6540FB40A005006243031
:0A023B00F7DAF2222437F7DAEC229A
:10030000456E74657220496E70757473004545338F
:1003100033372D323032320052656164696E6720A6
:10032000496E7075747300436F6D707574696E6794
:1003300020526573756C74004E756D313A002C2037
:100340004E756D323A00526573756C74203D200015
:00000001FF
