:03000000020E45A8
:0C0E4500787FE4F6D8FD75812F020E8C3A
:100B7F005072657373204120666F72204163636FFB
:100B8F00756E7420646973706C617920616E642076
:100B9F005720666F72207769746864726177696E27
:100BAF006720636173680D0A0048656C6C6F2C20B9
:100BBF00506C6561736520656E7465722041636367
:100BCF006F756E74204E756D6265720D0A0041630C
:100BDF00636F756E7420486F6C6465723A20536949
:100BEF007461200D0A004163636F756E742042615A
:100BFF006C616E63653A2031303030300D0A004140
:100C0F0063636F756E7420486F6C6465723A20472A
:100C1F00697461200D0A004E6F207375636820613F
:100C2F0063636F756E742C20706C656173652065DE
:100C3F006E7465722076616C696420646574616995
:100C4F006C730D0A0057697468647261772073744E
:100C5F006174652C20656E746572206163636F75B6
:100C6F006E74206E756D6265720D0A00456E746547
:100C7F007220416D6F756E742C20696E2068756ED1
:100C8F0064726564730D0A00496E76616C69642045
:100C9F00416D6F756E740D0A000D0A0052656D611E
:100CAF00696E696E672042616C616E63653A0035EB
:100CBF003030204E6F7465733A00202C3130302065
:100CCF004E6F7465733A00496E7375666669636932
:0C0CDF00656E742046756E64730D0A008B
:100F3A00C101C1000328000000032530000002217E
:060F4A002710022327100E
:100F5100758920758DF3438780759850D28ED2ACF8
:030F6100D2AF22EA
:100D9F008E1B8F1C8B1D8A1E891F7C277D10120DA9
:100DAF004AEF2430120D04AE1BAF1C7C277D1012AE
:100DBF000D4A7E037FE8CFCDCFCECCCE120D4AEFBA
:100DCF002430AB1DAA1EA91F900001120D16AE1BD9
:100DDF00AF1C7C037DE8120D4A7E007F64CFCDCF20
:100DEF00CECCCE120D4AEF2430AB1DAA1EA91F90F8
:100DFF000002120D16AE1BAF1C7C007D64120D4A53
:100E0F007E007F0ACFCDCFCECCCE120D4AEF24304D
:100E1F00AB1DAA1EA91F900003120D16AE1BAF1C0F
:100E2F007C007D0A120D4AED2430AB1DAA1EA91FAE
:060E3F00900004020D16F4
:100ED1008E2B8F2C8B2D8A2E892F7C007D0A120D53
:100EE1004A7E007F0ACFCDCFCECCCE120D4AEF2461
:100EF10030120D04AE2BAF2C7C007D0A120D4AED91
:0E0F01002430AB2DAA2EA92F900001020D1650
:080F7E008F993001FDC2012230
:060F0F007BFF7A0B79F56F
:100F15008B1B8A1C891DAB1BAA1CA91D120CEB601F
:100F250013051DE51D7002051C14F9120CEBFF12CB
:050F35000F7E80E222A6
:090F7400E4FF3000FDC200AF995A
:010F7D002251
:03002300020F6465
:100F6400309905C299D20132309804C298D2003225
:03080000120F5183
:10080300E4F508F509F50AF50BF50CF50DF50EF50C
:100813000FF510F511F512F513F514F515F516F599
:1008230017F518F519F51A7BFF7A0B797F120F1557
:10083300120F748F08E50824A9603E241670C17B4B
:10084300FF7A0B79B8120F15120F748F09E509247B
:10085300CE600B04701A7BFF7A0B79DD80067BFF79
:100863007A0C790E120F157BFF7A0B79F5020B4880
:100873007BFF7A0C7926020B487BFF7A0C795412A2
:100883000F15120F748F09E50924CE7003020A8B2A
:10089300046003020B737BFF7A0B79DD120F1512D1
:1008A3000F0F7BFF7A0C797B120F15120F748F0ACF
:1008B300E50A64316035E50A6432602FE50A643382
:1008C3006029E50A64346023E50A6435601DE50A9E
:1008D30064366017E50A64376011E50A6438600B13
:1008E300E50A64396005E50AB4300DE50A24D0F55C
:1008F3000FE434FFF50E80097BFF7A0C7997020B26
:1009030048120F748F0BE50B64316035E50B6432CD
:10091300602FE50B64336029E50B64346023E50B3A
:100923006435601DE50B64366017E50B64376011B1
:10093300E50B6438600BE50B64396005E50BB430F7
:100943000DE50B24D0F511E434FFF51080097BFF8E
:100953007A0C7997020B48AE10AF117C007D6412BC
:100963000D38AA06AB07AE0EAF0F7C037DE8120D60
:1009730038EF2BF50DEE3AF50C7B007A007918AFC2
:100983000DFE120D9F7B007A007918120F157BFF65
:100993007A0C79A8120F15D3E50D9522E50C952154
:1009A3004003020A82C3E50F9405E50E940040223A
:1009B300752831AE0EAF0F7C007D0A120D38E5119C
:1009C3002FFFE5103EFE7D05120D4AEF2426F52983
:1009D3008020752830AE0EAF0F7C007D0A120D38D3
:1009E300E5112FFFE5103EFE7D05120D4AEF243081
:1009F300F529AE0EAF0F7C007D0A120D38E5112FDD
:100A0300FFE5103EFE7D05120D4A8E148F15AE10C4
:100A1300AF117C007D05120D4AED2430F526C3E5A8
:100A230022950DF522E521950CF5217B007A0079BD
:100A330016AF22FE120D9F7BFF7A0C79AB120F15B6
:100A43007B007A007916120F157BFF7A0C79A812B6
:100A53000F157BFF7A0C79BE120F157B007A007994
:100A630028120F157BFF7A0C79C9120F157B007AB8
:100A7300007925120F157BFF7A0C79A8020B487BAE
:100A8300FF7A0C79D6020B487BFF7A0C790E120F92
:100A930015120F0F7BFF7A0C797B120F15120F744F
:100AA3008F0AE50A64316035E50A6432602FE50A8E
:100AB30064336029E50A64346023E50A6435601D04
:100AC300E50A64366017E50A64376011E50A64389D
:100AD300600BE50A64396005E50AB4300DE50A24C4
:100AE300D0F50FE434FFF50E80087BFF7A0C79977D
:100AF3008053120F748F0BE50B64316035E50B6483
:100B030032602FE50B64336029E50B64346023E521
:100B13000B6435601DE50B64366017E50B643760C5
:100B230011E50B6438600BE50B64396005E50BB424
:100B3300300DE50B24D0F511E434FFF510800C7B68
:100B4300FF7A0C7997120F15020803AE10AF117CD0
:100B5300007D64120D38AA06AB07AE0EAF0F7C03FF
:100B63007DE8120D38EF2BF50DEE3AF50C02080374
:0C0B73007BFF7A0C7926120F1502080394
:100E5100020800E493A3F8E493A34003F68001F2AF
:100E610008DFF48029E493A3F85407240CC8C333A2
:100E7100C4540F4420C8834004F456800146F6DF71
:100E8100E4800B0102040810204080900F3AE47EB8
:100E9100019360BCA3FF543F30E509541FFEE49366
:100EA100A360010ECF54C025E060A840B8E493A32D
:100EB100FAE493A3F8E493A3C8C582C8CAC583CA58
:100EC100F0A3C8C582C8CAC583CADFE9DEE780BE10
:010F500000A0
:100CEB00BB010689828A83E0225002E722BBFE0207
:090CFB00E32289828A83E493223A
:100D0400BB010689828A83F0225002F722BBFE01CE
:020D1400F322C8
:100D1600F8BB010DE58229F582E5833AF583E8F013
:100D2600225006E92582C8F622BBFE05E92582C8BF
:020D3600F222A7
:100D3800EF8DF0A4A8F0CF8CF0A428CE8DF0A42ECF
:020D4800FE2289
:100D4A00BC000BBE0029EF8DF084FFADF022E4CC8D
:100D5A00F875F008EF2FFFEE33FEEC33FCEE9DEC56
:100D6A00984005FCEE9DFE0FD5F0E9E4CEFD22ED9C
:100D7A00F8F5F0EE8420D21CFEADF075F008EF2FE6
:100D8A00FFED33FD4007985006D5F0F222C398FDD7
:050D9A000FD5F0EA2274
:00000001FF
