:10080000454520333337004C4544204F6B002A2A9E
:100810002A2A2A2A2A2A2A2A2A2A2A2A2A2A2A2A38
:100820002A2A2A2A2A2A0D0A002A2A2A2A2A2A3881
:100830003035312054657374732A2A2A2A2A2A2AC9
:100840002A0D0A005072657373203120666F722082
:100850004C434420746573740D0A005072657373C1
:10086000203220666F72204C454420746573740DED
:100870000A004C4344207465737465640D0A004C8F
:100880004544207465737465640D0A00496E636F96
:10089000727265637420746573742E205061737373
:1008A00020636F7272656374206E756D6265720D80
:0208B0000A003C
:040C4400C101C10029
:100B2500E4F5A0C282C280C2817F38FE120BEE12AC
:100B35000BAC7F067E00120BEE120BAC7F0C7E0019
:100B4500120BEE120BAC7F017E00120BEE120BACFA
:070B55007F807E00020BEE21
:040BAC007F047E0044
:100BB000E4FDFCC3ED9FEC9E5015E4FBFA0BBB007B
:0F0BC000010ABA01F8BB7EF50DBD00010C80E4FF
:010BCF002203
:1008B2008E088F098B0A8A0B890C7C277D101209FE
:1008C200A5EF2430120971AE08AF097C277D101202
:1008D20009A57E037FE8CFCDCFCECCCE1209A5EFFE
:1008E2002430AB0AAA0BA90C900001120983AE08AE
:1008F200AF097C037DE81209A57E007F64CFCDCFCE
:10090200CECCCE1209A5EF2430AB0AAA0BA90C90CB
:100912000002120983AE08AF097C007D641209A5AA
:100922007E007F0ACFCDCFCECCCE1209A5EF2430E8
:10093200AB0AAA0BA90C900003120983AE08AF09F7
:100942007C007D0A1209A5ED2430AB0AAA0BA90C82
:060952009000040209837D
:100BEE00C280C281D2828FA07F0A7E00120BB0C259
:020BFE00822251
:100C0000D280C281D2828FA07F0A7E00120BB0C236
:020C100082223E
:100B87008B0E8A0F8910AB0EAA0FA9101209586095
:100B9700130510E5107002050F14F9120958FF121A
:050BA7000C0080E222B9
:100C1200758920758DF3759850D28ED2ACD2AF22E1
:080C3C008F993001FDC2012275
:060B5C007BFF7A08790E10
:100B62008B0E8A0F8910AB0EAA0FA91012095860BA
:100B7200130510E5107002050F14F9120958FF123F
:050B82000C3C80E222A2
:090C3200E4FF3000FDC200AF999F
:010C3B002296
:03002300020C22AA
:100C2200309905C299D20132309804C298D200326A
:100BD0007F807E00120BEE7BFF7A087900120B8774
:0E0BE0007FD07E07120BB07F017E00020BEE6D
:100AE90075908F7FF47E01120BB07590CF120BB009
:100AF9007590EF120BB07590FF120BB075900F7FC8
:100B0900801E120BEE7BFF7A087907120B877FD0C4
:0C0B19007E07120BB07F017E00020BEE85
:100A8600E4F50D75900F120B25120C12120B5C7B00
:100A9600FF7A087929120B62120B5C7BFF7A0879C0
:100AA60044120B627BFF7A08795B120B62120C32DE
:100AB6008F0DE50D24CE600E047016120BD07BFF51
:100AC6007A0879728011120AE97BFF7A08797F80A9
:100AD600067BFF7A08798C120B627F647E00120B0C
:030AE600B080CA13
:030000000209FAF8
:0C09FA00787FE4F6D8FD758120020A41E8
:10095800BB010689828A83E0225002E722BBFE029D
:09096800E32289828A83E49322D0
:10097100BB010689828A83F0225002F722BBFE0165
:02098100F3225F
:10098300F8BB010DE58229F582E5833AF583E8F0AA
:10099300225006E92582C8F622BBFE05E92582C856
:0209A300F2223E
:1009A500BC000BBE0029EF8DF084FFADF022E4CC36
:1009B500F875F008EF2FFFEE33FEEC33FCEE9DECFF
:1009C500984005FCEE9DFE0FD5F0E9E4CEFD22ED45
:1009D500F8F5F0EE8420D21CFEADF075F008EF2F8F
:1009E500FFED33FD4007985006D5F0F222C398FD80
:0509F5000FD5F0EA221D
:100A0600020A86E493A3F8E493A34003F68001F276
:100A160008DFF48029E493A3F85407240CC8C333F1
:100A2600C4540F4420C8834004F456800146F6DFC0
:100A3600E4800B0102040810204080900C44E47E00
:100A4600019360BCA3FF543F30E509541FFEE493B5
:100A5600A360010ECF54C025E060A840B8E493A37C
:100A6600FAE493A3F8E493A3C8C582C8CAC583CAA7
:100A7600F0A3C8C582C8CAC583CADFE9DEE780BE5F
:010C480000AB
:00000001FF
