:03000000020100FA
:100100007570F37571B15139513931CE7B01513967
:10011000513951397484510B5139900500512B518B
:1001200039E570540FC4F59002026474C2510B514A
:1001300039512B514A513931CE5139513951397BCD
:10014000025139513951397484510B513990050894
:10015000512B5139E57054F0F59002026474C2518C
:100160000B5139512B514A513931CE5139513951F5
:10017000397B035139513951397484510B513990BC
:100180000510512B5139E571540FC4F590020264EA
:1001900074C2510B5139512B514A513931CE513919
:1001A000513951397B045139513951397484510BCA
:1001B0005139900518512B5139E57154F0F59002E1
:1001C000026474C2510B5139512B514A210675A05A
:1001D00038C280C281D2825139C282513975A00C95
:1001E000C280C281D2825139C282513975A001C206
:1001F00080C281D2825139C282513975A006C28033
:10020000C281D2825139C282513922F5A0C280C244
:1002100081D2825139C282513922F5A0D280C28165
:10022000D2825139C2825139513922C0E0E49360FF
:0102300005C8
:10023100511AA380F7D0E022C000C001780179FFF4
:10024100D9FED8FAD001D000227B1E5151DBFC220D
:10025100758901758A00758C00D28C308DFDC28C38
:10026100C28D22B400069005200202EEB410069061
:10027100052D0202EEB4200690053A0202EEB430DA
:10028100069005470202EEB440069005540202EEC4
:10029100B450069005610202EEB4600690056E024C
:1002A10002EEB4700690057B0202EEB48006900562
:1002B100880202EEB490069005950202EEB4A00603
:1002C1009005A20202EEB4B0069005AF0202EEB4B0
:1002D100C0069005BC0202EEB4D0069005C9020228
:1002E100EEB4E0069005D60202EE9005E3BB0103F1
:1002F10002012BBB020302015DBB03030201900259
:0203010001C237
:100500004C6576656C2D31004C6576656C2D32003E
:100510004C6576656C2D33004C6576656C2D34002A
:1005200056414C5545203A20303030300056414C31
:100530005545203A20303030310056414C55452049
:100540003A20303031300056414C5545203A203069
:100550003031310056414C5545203A203031303051
:100560000056414C5545203A20303130310056413B
:100570004C5545203A20303131300056414C5545DC
:10058000203A20303131310056414C5545203A2037
:10059000313030300056414C5545203A2031303012
:1005A000310056414C5545203A203130313000560B
:1005B000414C5545203A20313031310056414C559F
:1005C00045203A20313130300056414C5545203AD3
:1005D00020313130310056414C5545203A203131DF
:1005E00031300056414C5545203A203131313100EF
:00000001FF
