:03000000020030CB
:04001B000A315E3216
:1000300031D831D8316D31D831D831D8748231AA24
:1000400031D890030031CA31D87A00315E11601185
:100050009011C0119011F0315011F031200200497F
:100060007A007901758911758CEE758A3FD28CD230
:1000700087308DFDB287C28CC28D758911758CEE6B
:10008000758A3FD28C308DFDC28CC28DBA1ED322B0
:100090007A007902758911758CF0758A30D28CD20C
:1000A00087308DFDB287C28CC28D758911758CF039
:1000B000758A30D28C308DFDC28CC28DBA1ED3228F
:1000C0007A007903758911758CF2758AB7D28CD252
:1000D00087308DFDB287C28CC28D758911758CF207
:1000E000758AB7D28C308DFDC28CC28DBA1ED322D8
:1000F0007A007904758911758CF5758A72D28CD263
:1001000087308DFDB287C28CC28D758911758CF5D3
:10011000758A72D28C308DFDC28CC28DBA28D322E2
:100120007A007905758911758CF4758A2AD28CD27A
:1001300087308DFDB287C28CC28D758911758CF4A4
:10014000758A2AD28C308DFDC28CC28DBA28D322FA
:100150007A00C287BA14FB7A00C287BA02FB75899B
:1001600011758BB0758D3C75A888D28E2275A0381C
:10017000C280C281D28231D8C28231D875A00CC26D
:0B01800080C281D28231D8C28231D807
:10018B0075A001C280C281D28231D8C28231D875AA
:10019B00A006C280C281D28231D8C28231D822F568
:1001AB00A0C280C281D28231D8C28231D822F5A0BE
:1001BB00D280C281D28231D8C28231D831D822C00A
:1001CB00E0E493600531B9A380F7D0E022C000C012
:1001DB0001780179FFD9FED8FAD001D000227A023A
:1001EB00E654F0C4A903B40A0AB4090709E6540F8C
:1001FB00B40A0050062430F7DAF2222437F7DAEC8F
:01020B0022D0
:0D030000524F4C4C494E472054494D45008A
:00000001FF
